{
	"data": {
		"bytecode": {
			"linkReferences": {},
			"object": "608060405234801561001057600080fd5b5060d18061001f6000396000f3fe60806040526004361060265760003560e01c806365ac434114602b578063cd53e455146051575b600080fd5b348015603657600080fd5b50603d6059565b604051604891906078565b60405180910390f35b60576062565b005b60008054905090565b34600081905550565b6072816091565b82525050565b6000602082019050608b6000830184606b565b92915050565b600081905091905056fea26469706673582212200b034a8eba7b1342b431bfaad2c6e26c0e3667fcb4ac921e0d6b64a2ddb290a764736f6c63430008070033",
			"opcodes": "PUSH1 0x80 PUSH1 0x40 MSTORE CALLVALUE DUP1 ISZERO PUSH2 0x10 JUMPI PUSH1 0x0 DUP1 REVERT JUMPDEST POP PUSH1 0xD1 DUP1 PUSH2 0x1F PUSH1 0x0 CODECOPY PUSH1 0x0 RETURN INVALID PUSH1 0x80 PUSH1 0x40 MSTORE PUSH1 0x4 CALLDATASIZE LT PUSH1 0x26 JUMPI PUSH1 0x0 CALLDATALOAD PUSH1 0xE0 SHR DUP1 PUSH4 0x65AC4341 EQ PUSH1 0x2B JUMPI DUP1 PUSH4 0xCD53E455 EQ PUSH1 0x51 JUMPI JUMPDEST PUSH1 0x0 DUP1 REVERT JUMPDEST CALLVALUE DUP1 ISZERO PUSH1 0x36 JUMPI PUSH1 0x0 DUP1 REVERT JUMPDEST POP PUSH1 0x3D PUSH1 0x59 JUMP JUMPDEST PUSH1 0x40 MLOAD PUSH1 0x48 SWAP2 SWAP1 PUSH1 0x78 JUMP JUMPDEST PUSH1 0x40 MLOAD DUP1 SWAP2 SUB SWAP1 RETURN JUMPDEST PUSH1 0x57 PUSH1 0x62 JUMP JUMPDEST STOP JUMPDEST PUSH1 0x0 DUP1 SLOAD SWAP1 POP SWAP1 JUMP JUMPDEST CALLVALUE PUSH1 0x0 DUP2 SWAP1 SSTORE POP JUMP JUMPDEST PUSH1 0x72 DUP2 PUSH1 0x91 JUMP JUMPDEST DUP3 MSTORE POP POP JUMP JUMPDEST PUSH1 0x0 PUSH1 0x20 DUP3 ADD SWAP1 POP PUSH1 0x8B PUSH1 0x0 DUP4 ADD DUP5 PUSH1 0x6B JUMP JUMPDEST SWAP3 SWAP2 POP POP JUMP JUMPDEST PUSH1 0x0 DUP2 SWAP1 POP SWAP2 SWAP1 POP JUMP INVALID LOG2 PUSH5 0x6970667358 0x22 SLT KECCAK256 SIGNEXTEND SUB 0x4A DUP15 0xBA PUSH28 0x1342B431BFAAD2C6E26C0E3667FCB4AC921E0D6B64A2DDB290A76473 PUSH16 0x6C634300080700330000000000000000 "
		},
		"gasEstimates": {
			"creation": {
				"codeDepositCost": "41800",
				"executionCost": "93",
				"totalCost": "41893"
			},
			"external": {
				"getTotalAmount()": "2415",
				"receivedEther()": "22233"
			}
		},
		"methodIdentifiers": {
			"getTotalAmount()": "65ac4341",
			"receivedEther()": "cd53e455"
		}
	},
	"abi": [
		{
			"inputs": [],
			"name": "getTotalAmount",
			"outputs": [
				{
					"internalType": "uint256",
					"name": "",
					"type": "uint256"
				}
			],
			"stateMutability": "view",
			"type": "function"
		},
		{
			"inputs": [],
			"name": "receivedEther",
			"outputs": [],
			"stateMutability": "payable",
			"type": "function"
		}
	]
}